{
  "contractName": "SquareVerifier",
  "abi": [
    {
      "constant": false,
      "inputs": [
        {
          "name": "a",
          "type": "uint256[2]"
        },
        {
          "name": "b",
          "type": "uint256[2][2]"
        },
        {
          "name": "c",
          "type": "uint256[2]"
        },
        {
          "name": "input",
          "type": "uint256[2]"
        }
      ],
      "name": "verifyTx",
      "outputs": [
        {
          "name": "r",
          "type": "bool"
        }
      ],
      "payable": false,
      "stateMutability": "nonpayable",
      "type": "function"
    },
    {
      "anonymous": false,
      "inputs": [
        {
          "indexed": false,
          "name": "s",
          "type": "string"
        }
      ],
      "name": "Verified",
      "type": "event"
    }
  ],
  "bytecode": "0x608060405234801561001057600080fd5b5061117f806100206000396000f3fe608060405234801561001057600080fd5b5060043610610048576000357c010000000000000000000000000000000000000000000000000000000090048063621e9ec01461004d575b600080fd5b6101ac600480360361014081101561006457600080fd5b8101908080604001906002806020026040519081016040528092919082600260200280828437600081840152601f19601f82011690508083019250505050505091929192908060800190600280602002604051908101604052809291906000905b82821015610119578382604002016002806020026040519081016040528092919082600260200280828437600081840152601f19601f820116905080830192505050505050815260200190600101906100c5565b50505050919291929080604001906002806020026040519081016040528092919082600260200280828437600081840152601f19601f820116905080830192505050505050919291929080604001906002806020026040519081016040528092919082600260200280828437600081840152601f19601f82011690508083019250505050505091929192905050506101c6565b604051808215151515815260200191505060405180910390f35b60006101d0610fcd565b60408051908101604052808760006002811015156101ea57fe5b6020020151815260200187600160028110151561020357fe5b602002015181525081600001819052506040805190810160405280604080519081016040528088600060028110151561023857fe5b6020020151600060028110151561024b57fe5b6020020151815260200188600060028110151561026457fe5b6020020151600160028110151561027757fe5b60200201518152508152602001604080519081016040528088600160028110151561029e57fe5b602002015160006002811015156102b157fe5b602002015181526020018860016002811015156102ca57fe5b602002015160016002811015156102dd57fe5b60200201518152508152508160200181905250604080519081016040528085600060028110151561030a57fe5b6020020151815260200185600160028110151561032357fe5b60200201518152508160400181905250606060026040519080825280602002602001820160405280156103655781602001602082028038833980820191505090505b50905060008090505b60028110156103b357848160028110151561038557fe5b6020020151828281518110151561039857fe5b9060200190602002018181525050808060010191505061036e565b5060006103c0828461042b565b141561041c577f3f3cfdb26fb5f9f1786ab4f1a1f9cd4c0b5e726cbdfc26e495261731aad44e396040518080602001828103825260228152602001806111326022913960400191505060405180910390a1600192505050610423565b6000925050505b949350505050565b6000610435611002565b61043d610568565b9050806080015151600185510114151561045657600080fd5b61045e61104b565b6040805190810160405280600081526020016000815250905060008090505b85518110156104dd576104ce826104c98560800151600185018151811015156104a257fe5b9060200190602002015189858151811015156104ba57fe5b906020019060200201516109c1565b610a5d565b9150808060010191505061047d565b5061050481836080015160008151811015156104f557fe5b90602001906020020151610a5d565b905061054a8460000151856020015161051c84610b1a565b856040015161052e8960400151610b1a565b87606001516105408960000151610b1a565b8960200151610bb6565b151561055b57600192505050610562565b6000925050505b92915050565b610570611002565b60408051908101604052807f2fc921c86cbc2206cb63eee06bda8551b1536568852271b6de7abb9851ffb1e081526020017f1de82cafdddc96d3fa44e191e341094387abaeddb2af6ee48f87aa7e3ae58cc28152508160000181905250604080519081016040528060408051908101604052807f114bb5af809ae23ecdd64c5f4bf2552872af8cdc2b58f4c2a6c2da4f0437f31581526020017f242dec9ff5ec7dde54cb354004c3fb2f8ddf9d1470359be685c7c9f8ef5ef69d815250815260200160408051908101604052807f0c36ae0e50c966b82dcbf567a0126eee96d4c7798eae580f8f89ebe2a794684081526020017f2b95803b57b795dc7334156c6ac2454c160e99497d85bb991820eece6f4ab3a58152508152508160200181905250604080519081016040528060408051908101604052807f23808a0a0370607448bd99e54abbe9181bc4a71289f042a5ba699003c9e4b22481526020017f055ae6d55c2631665bfd8910802c89cad6ba15856367c5d28cc8fd2ff5a96ace815250815260200160408051908101604052807f223eb64e7837ae83b957f33efde7dbc0b05ac57d0200ebe5f307edf5a9df1e7c81526020017f0a4222184b3c49cc5b36864d5e1071c7e81808c5d668bcd68c538e98babb8ba78152508152508160400181905250604080519081016040528060408051908101604052807f2ab3bd5ca5dbd3c966427aced7789c6ee80dea1d30640e96dc3bade30d0ebec381526020017eb9b77a9b8a4c48653d0dcbe1ba90ac3c7c8a8a350a750b8b417853b18df49f815250815260200160408051908101604052807f1889c91dbee04c1d762689308d8e64669e45886c447825d4dc661c69f800de2681526020017f059a8ed27cd3fc3411dccf5d3aba4b4897fb9f012d4d35bc0be37a1eb02897ac8152508152508160600181905250600360405190808252806020026020018201604052801561085657816020015b610843611065565b81526020019060019003908161083b5790505b50816080018190525060408051908101604052807f298ac806c1dc9281bc4e772ed55f1ff19bbfd06253cbfb6df2300a45dc357fe081526020017f12a8fadf8ba32642f7dd9a68c1fc46338d14be86f9929e3053f276be2477aa4f815250816080015160008151811015156108c757fe5b9060200190602002018190525060408051908101604052807f11480729d24a7a63f2c4de5105150d351b6b46a3640babb43b91df24b319acff81526020017f30536554595004bc7b6dac9e94bcf697effb66f5a44b7c907c5a29e4f243a0fc8152508160800151600181518110151561093c57fe5b9060200190602002018190525060408051908101604052807f069606fc810680b2d93a43ad0c342d045b0ba22260453282fc106f5085c6518e81526020017f2c12f8ec48f46cbe4596a78be47e8b7d884af0bd7decf383bc64156167a304f7815250816080015160028151811015156109b157fe5b9060200190602002018190525090565b6109c961104b565b6109d161107f565b83600001518160006003811015156109e557fe5b6020020181815250508360200151816001600381101515610a0257fe5b60200201818152505082816002600381101515610a1b57fe5b6020020181815250506000606083608084600060076107d05a03f190508060008114610a4657610a48565bfe5b50801515610a5557600080fd5b505092915050565b610a6561104b565b610a6d6110a2565b8360000151816000600481101515610a8157fe5b6020020181815250508360200151816001600481101515610a9e57fe5b6020020181815250508260000151816002600481101515610abb57fe5b6020020181815250508260200151816003600481101515610ad857fe5b602002018181525050600060608360c084600060066107d05a03f190508060008114610b0357610b05565bfe5b50801515610b1257600080fd5b505092915050565b610b2261104b565b60007f30644e72e131a029b85045b68181585d97816a916871ca8d3c208c16d87cfd47905060008360000151148015610b5f575060008360200151145b15610b83576040805190810160405280600081526020016000815250915050610bb1565b604080519081016040528084600001518152602001828560200151811515610ba757fe5b0683038152509150505b919050565b600060606004604051908082528060200260200182016040528015610bf557816020015b610be2611065565b815260200190600190039081610bda5790505b50905060606004604051908082528060200260200182016040528015610c3557816020015b610c226110c5565b815260200190600190039081610c1a5790505b5090508a826000815181101515610c4857fe5b9060200190602002018190525088826001815181101515610c6557fe5b9060200190602002018190525086826002815181101515610c8257fe5b9060200190602002018190525084826003815181101515610c9f57fe5b9060200190602002018190525089816000815181101515610cbc57fe5b9060200190602002018190525087816001815181101515610cd957fe5b9060200190602002018190525085816002815181101515610cf657fe5b9060200190602002018190525083816003815181101515610d1357fe5b90602001906020020181905250610d2a8282610d3a565b9250505098975050505050505050565b600081518351141515610d4c57600080fd5b6000835190506000600682029050606081604051908082528060200260200182016040528015610d8b5781602001602082028038833980820191505090505b50905060008090505b83811015610f69578681815181101515610daa57fe5b90602001906020020151600001518260006006840201815181101515610dcc57fe5b90602001906020020181815250508681815181101515610de857fe5b90602001906020020151602001518260016006840201815181101515610e0a57fe5b90602001906020020181815250508581815181101515610e2657fe5b90602001906020020151600001516000600281101515610e4257fe5b60200201518260026006840201815181101515610e5b57fe5b90602001906020020181815250508581815181101515610e7757fe5b90602001906020020151600001516001600281101515610e9357fe5b60200201518260036006840201815181101515610eac57fe5b90602001906020020181815250508581815181101515610ec857fe5b90602001906020020151602001516000600281101515610ee457fe5b60200201518260046006840201815181101515610efd57fe5b90602001906020020181815250508581815181101515610f1957fe5b90602001906020020151602001516001600281101515610f3557fe5b60200201518260056006840201815181101515610f4e57fe5b90602001906020020181815250508080600101915050610d94565b50610f726110ec565b60006020826020860260208601600060086107d05a03f190508060008114610f9957610f9b565bfe5b50801515610fa857600080fd5b6000826000600181101515610fb957fe5b602002015114159550505050505092915050565b61010060405190810160405280610fe2611065565b8152602001610fef6110c5565b8152602001610ffc611065565b81525090565b6101e060405190810160405280611017611065565b81526020016110246110c5565b81526020016110316110c5565b815260200161103e6110c5565b8152602001606081525090565b604080519081016040528060008152602001600081525090565b604080519081016040528060008152602001600081525090565b606060405190810160405280600390602082028038833980820191505090505090565b608060405190810160405280600490602082028038833980820191505090505090565b6080604051908101604052806110d961110f565b81526020016110e661110f565b81525090565b602060405190810160405280600190602082028038833980820191505090505090565b604080519081016040528060029060208202803883398082019150509050509056fe5472616e73616374696f6e207375636365737366756c6c792076657269666965642ea165627a7a7230582055bcdbfb67888fafcc42f217b46adddaaf930704c26938f8bd5283e12dc09f3d0029",
  "source": "pragma solidity >=0.4.21 <0.6.0;\r\n\r\nimport './ERC721Mintable.sol';\r\nimport './Verifier.sol';\r\n\r\n// TODO define a contract call to the zokrates generated solidity contract <Verifier> or <renamedVerifier>\r\ncontract SquareVerifier is Verifier {\r\n    // function verifyTx(\r\n    //             uint[2] memory a,\r\n    //             uint[2][2] memory b,\r\n    //             uint[2] memory c,\r\n    //             uint[2] memory input\r\n    //         ) public returns (bool r);\r\n}\r\n\r\n\r\n// TODO define another contract named SolnSquareVerifier that inherits from your ERC721Mintable class\r\ncontract SolnSquareVerifier is ERC721Mintable\r\n{\r\n\r\nSquareVerifier verifier;\r\n\r\nconstructor(address verifierAddress) public{\r\n    verifier = SquareVerifier(verifierAddress);\r\n}\r\n\r\n// TODO define a solutions struct that can hold an index & an address\r\nstruct Solution{\r\n    uint256 index;\r\n    address addr;\r\n}\r\n\r\n\r\n// TODO define an array of the above struct\r\nSolution[] solutions;\r\n\r\n// TODO define a mapping to store unique solutions submitted\r\nmapping (bytes32 => address) uniqueSolutions;\r\n\r\n\r\n// TODO Create an event to emit when a solution is added\r\nevent solutionAdded(uint index, address addr);\r\n\r\n\r\n// TODO Create a function to add the solutions to the array and emit the event\r\nfunction addSolution(uint index, address addr, bytes32 key) public {\r\n    Solution memory sol = Solution({\r\n        index: index,\r\n        addr: addr\r\n    });\r\n    solutions.push(sol);\r\n    uniqueSolutions[key] = addr;\r\n    emit solutionAdded(index, addr);\r\n}\r\n\r\n\r\n// TODO Create a function to mint new NFT only after the solution has been verified\r\n//  - make sure the solution is unique (has not been used before)\r\n//  - make sure you handle metadata as well as tokenSuplly\r\nfunction mint(address to, uint256 tokenId, uint[2] memory a,\r\n            uint[2][2] memory b, uint[2] memory c, uint[2] memory input)\r\n            public\r\n{\r\n    bytes32 key = keccak256(abi.encodePacked(a, b, c, input));\r\n    require(uniqueSolutions[key] == address(0), \"Solution must be unique to mint a token.\");\r\n    require(verifier.verifyTx(a,b,c,input), \"Solution must be unique to mint a token.\");\r\n    addSolution(tokenId, to, key);\r\n    super.mint(to, tokenId);\r\n}\r\n\r\n}\r\n",
  "sourcePath": "C:/Users/rady/Desktop/Blockchain/Udacity/Capstone/Blockchain-Capstone/eth-contracts/contracts/SolnSquareVerifier.sol",
  "compiler": {
    "name": "solc",
    "version": "0.5.2+commit.1df8f40c.Emscripten.clang"
  },
  "schemaVersion": "3.0.1",
  "updatedAt": "2019-04-28T07:06:11.772Z",
  "devdoc": {
    "methods": {}
  },
  "userdoc": {
    "methods": {}
  }
}